:020000040800F2
:1000000000500020C52D0008F52C0008FD2C00082C
:10001000052D00080D2D0008152D0008000000001A
:100020000000000000000000000000001D2D00087E
:10003000292D000800000000352D0008412D000882
:100040000D2E00080D2E00080D2E00080D2E0008A4
:100050000D2E00080D2E00080D2E00080D2E000894
:100060000D2E00080D2E00080D2E00080D2E000884
:100070000D2E00080D2E00080D2E00080D2E000874
:100080000D2E00080D2E00080D2E00080D2E000864
:100090000D2E00080D2E00080D2E00080D2E000854
:1000A0000D2E00080D2E00080D2E00080D2E000844
:1000B0000D2E00080D2E00080D2E00080D2E000834
:1000C0000D2E00080D2E00080D2E00080D2E000824
:1000D0000D2E00080D2E00080D2E00080D2E000814
:1000E0000D2E00080D2E00080D2E00080000000047
:1000F0000000000000000000000000000000000000
:0C01000000000000000000005FF808F1A3
:10010C0010B5054C237833B9044B13B10448AFF345
:10011C0000800123237010BD5C0000200000000053
:10012C00D870000808B5034B1BB103490348AFF363
:10013C00008008BD0000000060000020D87000089E
:10014C0081F0004102E000BF83F0004330B54FEA7C
:10015C0041044FEA430594EA050F08BF90EA020FE9
:10016C001FBF54EA000C55EA020C7FEA645C7FEA7C
:10017C00655C00F0E2804FEA5454D4EB5555B8BF9F
:10018C006D420CDD2C4480EA020281EA030382EA10
:10019C00000083EA010180EA020281EA0303362DA2
:1001AC0088BF30BD11F0004F4FEA01314FF4801C75
:1001BC004CEA113102D0404261EB410113F0004F87
:1001CC004FEA03334CEA133302D0524263EB43033E
:1001DC0094EA050F00F0A780A4F10104D5F1200EDC
:1001EC000DDB02FA0EFC22FA05F2801841F1000137
:1001FC0003FA0EF2801843FA05F359410EE0A5F10B
:10020C0020050EF1200E012A03FA0EFC28BF4CF03B
:10021C00020C43FA05F3C01851EBE37101F00045F1
:10022C0007D54FF0000EDCF1000C7EEB00006EEBFE
:10023C000101B1F5801F1BD3B1F5001F0CD3490888
:10024C005FEA30004FEA3C0C04F101044FEA4452DF
:10025C0012F5800F80F09A80BCF1004F08BF5FEA66
:10026C00500C50F1000041EB045141EA050130BD46
:10027C005FEA4C0C404141EB0101013C28BFB1F558
:10028C00801FE9D291F0000F04BF01460020B1FAA3
:10029C0081F308BF2033A3F10B03B3F120020CDA76
:1002AC000C3208DD02F1140CC2F10C0201FA0CF054
:1002BC0021FA02F10CE002F11402D8BFC2F1200CB9
:1002CC0001FA02F120FA0CFCDCBF41EA0C0190406F
:1002DC00E41AA2BF01EB0451294330BD6FEA0404B8
:1002EC001F3C1CDA0C340EDC04F11404C4F12002A3
:1002FC0020FA04F001FA02F340EA030021FA04F3B5
:10030C0045EA030130BDC4F10C04C4F1200220FA0B
:10031C0002F001FA04F340EA0300294630BD21FA49
:10032C0004F0294630BD94F0000F83F4801306BF0F
:10033C0081F480110134013D4EE77FEA645C18BF03
:10034C007FEA655C29D094EA050F08BF90EA020F9A
:10035C0005D054EA000C04BF1946104630BD91EA92
:10036C00030F1EBF0021002030BD5FEA545C05D195
:10037C004000494128BF41F0004130BD14F58004D4
:10038C003CBF01F5801130BD01F0004545F0FE4148
:10039C0041F470014FF0000030BD7FEA645C1ABF7D
:1003AC00194610467FEA655C1CBF0B46024650EAB4
:1003BC00013406BF52EA033591EA030F41F40021E0
:1003CC0030BD00BF90F0000F04BF0021704730B566
:1003DC004FF4806404F132044FF000054FF000013B
:1003EC0050E700BF90F0000F04BF0021704730B5FC
:1003FC004FF4806404F1320410F0004548BF4042D1
:10040C004FF000013EE700BF42004FEAE2014FEA25
:10041C0031014FEA02701FBF12F07F4393F07F4F00
:10042C0081F06051704732F07F4208BF704793F003
:10043C007F4F04BF41F40021704730B54FF4607416
:10044C0001F0004521F000411CE700BF50EA010219
:10045C0008BF704730B54FF000050AE050EA0102C2
:10046C0008BF704730B511F0004502D5404261EB32
:10047C0041014FF4806404F132045FEA915C3FF473
:10048C00D8AE4FF003025FEADC0C18BF03325FEA10
:10049C00DC0C18BF033202EBDC02C2F1200300FAC1
:1004AC0003FC20FA02F001FA03FE40EA0E0021FAE6
:1004BC0002F11444BDE600BF70B54FF0FF0C4CF4D4
:1004CC00E06C1CEA11541DBF1CEA135594EA0C0F86
:1004DC0095EA0C0F00F0DEF82C4481EA030621EAC1
:1004EC004C5123EA4C5350EA013518BF52EA0335FC
:1004FC0041F4801143F4801338D0A0FB02CE4FF0AE
:10050C000005E1FB02E506F00042E0FB03E54FF0DD
:10051C000006E1FB03569CF0000F18BF4EF0010ED5
:10052C00A4F1FF04B6F5007F64F5407404D25FEAD1
:10053C004E0E6D4146EB060642EAC62141EA555184
:10054C004FEAC52040EA5E504FEACE2EB4F1FD0CC6
:10055C0088BFBCF5E06F1ED8BEF1004F08BF5FEA44
:10056C00500E50F1000041EB045170BD06F00046F6
:10057C0046EA010140EA020081EA0301B4EB5C04A3
:10058C00C2BFD4EB0C0541EA045170BD41F480119B
:10059C004FF0000E013C00F3AB8014F1360FDEBFC0
:1005AC00002001F0004170BDC4F10004203C35DA9C
:1005BC000C341BDC04F11404C4F1200500FA05F31F
:1005CC0020FA04F001FA05F240EA020001F00042C0
:1005DC0021F0004110EBD37021FA04F642EB060136
:1005EC005EEA430E08BF20EAD37070BDC4F10C0460
:1005FC00C4F1200500FA04F320FA05F001FA04F224
:10060C0040EA020001F0004110EBD37041F100010F
:10061C005EEA430E08BF20EAD37070BDC4F120051A
:10062C0000FA05F24EEA020E20FA04F301FA05F282
:10063C0043EA020321FA04F001F0004121FA04F22A
:10064C0020EA020000EBD3705EEA430E08BF20EAFA
:10065C00D37070BD94F0000F0FD101F00046400034
:10066C0041EB010111F4801F08BF013CF7D041EAB6
:10067C00060195F0000F18BF704703F000465200BA
:10068C0043EB030313F4801F08BF013DF7D043EA8B
:10069C000603704794EA0C0F0CEA135518BF95EA41
:1006AC000C0F0CD050EA410618BF52EA4306D1D1C8
:1006BC0081EA030101F000414FF0000070BD50EAE7
:1006CC00410606BF1046194652EA430619D094EA71
:1006DC000C0F02D150EA013613D195EA0C0F05D15B
:1006EC0052EA03361CBF104619460AD181EA0301AF
:1006FC0001F0004141F0FE4141F470014FF0000067
:10070C0070BD41F0FE4141F4780170BD70B54FF001
:10071C00FF0C4CF4E06C1CEA11541DBF1CEA135581
:10072C0094EA0C0F95EA0C0F00F0A7F8A4EB050463
:10073C0081EA030E52EA03354FEA013100F088805A
:10074C004FEA03334FF0805545EA131343EA126323
:10075C004FEA022245EA111545EA10654FEA0026D8
:10076C000EF000419D4208BF964244F1FD0404F591
:10077C00407402D25B084FEA3202B61A65EB0305ED
:10078C005B084FEA32024FF480104FF4002CB6EBAA
:10079C00020E75EB030E22BFB61A754640EA0C002A
:1007AC005B084FEA3202B6EB020E75EB030E22BF6A
:1007BC00B61A754640EA5C005B084FEA3202B6EBAB
:1007CC00020E75EB030E22BFB61A754640EA9C006A
:1007DC005B084FEA3202B6EB020E75EB030E22BF3A
:1007EC00B61A754640EADC0055EA060E18D04FEAF8
:1007FC00051545EA16754FEA06164FEAC30343EA98
:10080C0052734FEAC2025FEA1C1CC0D111F4801F64
:10081C000BD141EA00014FF000004FF0004CB6E75D
:10082C0011F4801F04BF01430020B4F1FD0C88BFFC
:10083C00BCF5E06F3FF6AFAEB5EB030C04BFB6EB07
:10084C00020C5FEA500C50F1000041EB045170BDFA
:10085C000EF0004E4EEA113114EB5C04C2BFD4EB27
:10086C000C0541EA045170BD41F480114FF0000EAB
:10087C00013C90E645EA060E8DE60CEA135594EA27
:10088C000C0F08BF95EA0C0F3FF43BAF94EA0C0F2A
:10089C000AD150EA01347FF434AF95EA0C0F7FF49F
:1008AC0025AF104619462CE795EA0C0F06D152EAF3
:1008BC0003353FF4FDAE1046194622E750EA4106D7
:1008CC0018BF52EA43067FF4C5AE50EA41047FF4E8
:1008DC000DAF52EA43057FF4EBAE12E74FEA41024B
:1008EC0012F5001215D211D56FF47873B3EB625276
:1008FC0012D94FEAC12343F0004343EA505311F09D
:10090C00004F23FA02F018BF404270474FF000002E
:10091C00704750EA013005D111F0004008BF6FF06C
:10092C00004070474FF00000704700BF80F000405F
:10093C0002E000BF81F0004142001FBF5FEA4103AB
:10094C0092EA030F7FEA226C7FEA236C6AD04FEAAB
:10095C001262D2EB1363C1BFD218414048404140F0
:10096C00B8BF5B42192B88BF704710F0004F40F4A2
:10097C00000020F07F4018BF404211F0004F41F4BE
:10098C00000121F07F4118BF494292EA030F3FD08A
:10099C00A2F1010241FA03FC10EB0C00C3F120039D
:1009AC0001FA03F100F0004302D5494260EB40002C
:1009BC00B0F5000F13D3B0F1807F06D340084FEA97
:1009CC00310102F10102FE2A51D2B1F1004F40EB8C
:1009DC00C25008BF20F0010040EA030070474900F4
:1009EC0040EB0000013A28BFB0F5000FEDD2B0FA91
:1009FC0080FCACF1080CB2EB0C0200FA0CF0AABFB4
:100A0C0000EBC25052421843BCBFD0401843704751
:100A1C0092F0000F81F4000106BF80F40000013257
:100A2C00013BB5E74FEA41037FEA226C18BF7FEA2E
:100A3C00236C21D092EA030F04D092F0000F08BF70
:100A4C000846704790EA010F1CBF0020704712F057
:100A5C007F4F04D1400028BF40F00040704712F196
:100A6C0000723CBF00F50000704700F0004343F0FB
:100A7C00FE4040F4000070477FEA226216BF084631
:100A8C007FEA23630146420206BF5FEA412390EAF4
:100A9C00010F40F4800070474FF0000304E000BFEA
:100AAC0010F0004348BF40425FEA000C08BF70479B
:100ABC0043F0964301464FF000001CE050EA01025F
:100ACC0008BF70474FF000030AE000BF50EA010274
:100ADC0008BF704711F0004302D5404261EB410161
:100AEC005FEA010C02BF84460146002043F0B64386
:100AFC0008BFA3F18053A3F50003BCFA8CF2083AAB
:100B0C00A3EBC25310DB01FA02FC634400FA02FCB3
:100B1C00C2F12002BCF1004F20FA02F243EB0200BA
:100B2C0008BF20F00100704702F1200201FA02FC1C
:100B3C00C2F1200250EA4C0021FA02F243EB02000F
:100B4C0008BF20EADC7070474FF0FF0C1CEAD05253
:100B5C001EBF1CEAD15392EA0C0F93EA0C0F6FD014
:100B6C001A4480EA010C400218BF5FEA41211ED0F2
:100B7C004FF0006343EA501043EA5111A0FB0131DE
:100B8C000CF00040B1F5000F3EBF490041EAD371B3
:100B9C005B0040EA010062F17F02FD2A1DD8B3F12F
:100BAC00004F40EBC25008BF20F00100704790F09E
:100BBC00000F0CF0004C08BF49024CEA502040EAF0
:100BCC0051207F3AC2BFD2F1FF0340EAC2507047B6
:100BDC0040F400004FF00003013A5DDC12F1190FF4
:100BEC00DCBF00F000407047C2F10002410021FA66
:100BFC0002F1C2F1200200FA02FC5FEA310040F17E
:100C0C00000053EA4C0308BF20EADC70704792F0F6
:100C1C00000F00F0004C02BF400010F4000F013A2E
:100C2C00F9D040EA0C0093F0000F01F0004C02BF29
:100C3C00490011F4000F013BF9D041EA0C018FE798
:100C4C000CEAD15392EA0C0F18BF93EA0C0F0AD09E
:100C5C0030F0004C18BF31F0004CD8D180EA0100C4
:100C6C0000F00040704790F0000F17BF90F0004F5D
:100C7C00084691F0000F91F0004F14D092EA0C0F3F
:100C8C0001D142020FD193EA0C0F03D14B0218BFD2
:100C9C00084608D180EA010000F0004040F0FE4018
:100CAC0040F40000704740F0FE4040F440007047B4
:100CBC004FF0FF0C1CEAD0521EBF1CEAD15392EA33
:100CCC000C0F93EA0C0F69D0A2EB030280EA010C23
:100CDC0049024FEA402037D04FF0805343EA1111BC
:100CEC0043EA10130CF000408B4238BF5B0042F11A
:100CFC007D024FF4000C8B4224BF5B1A40EA0C00BF
:100D0C00B3EB510F24BFA3EB510340EA5C00B3EBF0
:100D1C00910F24BFA3EB910340EA9C00B3EBD10FDE
:100D2C0024BFA3EBD10340EADC001B0118BF5FEA30
:100D3C001C1CE0D1FD2A3FF650AF8B4240EBC25059
:100D4C0008BF20F0010070470CF0004C4CEA50201A
:100D5C007F32C2BFD2F1FF0340EAC250704740F469
:100D6C0000004FF00003013A37E792F0000F00F05B
:100D7C00004C02BF400010F4000F013AF9D040EAD9
:100D8C000C0093F0000F01F0004C02BF490011F46D
:100D9C00000F013BF9D041EA0C0195E70CEAD15365
:100DAC0092EA0C0F08D142027FF47DAF93EA0C0F4C
:100DBC007FF470AF084676E793EA0C0F04D14B0230
:100DCC003FF44CAF08466EE730F0004C18BF31F0E2
:100DDC00004CCAD130F000427FF45CAF31F00043DC
:100DEC007FF43CAF5FE700BF4FF0FF3C06E000BF75
:100DFC004FF0010C02E000BF4FF0010C4DF804CD98
:100E0C004FEA40024FEA41037FEA226C18BF7FEAA7
:100E1C00236C11D001B052EA530C18BF90EA010FA9
:100E2C0058BFB2EB030088BFC81738BF6FEAE17038
:100E3C0018BF40F0010070477FEA226C02D15FEAD4
:100E4C00402C05D17FEA236CE4D15FEA412CE1D040
:100E5C005DF8040B704700BF844608466146FFE707
:100E6C000FB5FFF7C9FF002848BF10F1000F0FBDE9
:100E7C004DF808EDFFF7F4FF0CBF012000205DF8E2
:100E8C0008FB00BF4DF808EDFFF7EAFF34BF012067
:100E9C0000205DF808FB00BF4DF808EDFFF7E0FF00
:100EAC0094BF012000205DF808FB00BF4DF808ED51
:100EBC00FFF7D2FF94BF012000205DF808FB00BFB4
:100ECC004DF808EDFFF7C8FF34BF012000205DF896
:100EDC0008FB00BF4FEA4002B2F1FE4F0FD34FF0B8
:100EEC009E03B3EB12620DD94FEA002343F000438B
:100EFC0010F0004F23FA02F018BF404270474FF039
:100F0C000000704712F1610F01D1420205D110F0BF
:100F1C00004008BF6FF0004070474FF00000704772
:100F2C0080B584B000AF00237B8100237B6001F08F
:100F3C0069FF00F08FF800F0F5F900F0E7F800F029
:100F4C0051F900213E4804F07DF83E4802F04CFA7D
:100F5C0001F058FF00F07EF800F0E4F900F042F9DF
:100F6C0000F0D4F800F010F900F0A4FA4FF40041AE
:100F7C00354802F04FFD0346002B0DD14FF40051C4
:100F8C00314802F076FD4FF47E71304802F071FD6D
:100F9C00FA2001F099FF0BE001224FF400512A488E
:100FAC0002F04FFD01224FF47E71284802F049FDFA
:100FBC004FF48041244802F02DFD0346002B0ED146
:100FCC0000224FF40051204802F03BFD00224FF468
:100FDC007E711E4802F035FDFA2001F075FF4FF4CA
:100FEC0000411B4802F016FD0346002BBED1002326
:100FFC00FB600AE0124B1B68FA685A63322001F05E
:10100C0063FFFB6803F57A73FB60FB684FF6FE72B7
:10101C009342EFDD4FF6FF73FB600CE0084B1B684F
:10102C00FA685A63322001F04FFF01F0FFFCFB68B5
:10103C00A3F57A73FB60FB68002BEFDC96E700BF2F
:10104C00FC0000207800002000100140000C014042
:10105C000008014080B594B000AF07F128032822A6
:10106C000021184604F0BCFD07F1140300221A609D
:10107C005A609A60DA601A613B1D00221A605A604D
:10108C009A60DA600123BB624FF48033FB62002369
:10109C003B630123BB6302237B644FF48033BB644B
:1010AC004FF4E013FB6407F12803184603F0A6F98C
:1010BC000346002B01D000F0BFF90F237B61022304
:1010CC00BB610023FB614FF480633B6200237B62B6
:1010DC0007F114030221184603F012FC0346002BFF
:1010EC0001D000F0A9F902237B604FF40043FB60B0
:1010FC003B1D184603F092FD0346002B01D000F077
:10110C009BF900BF5037BD4680BD000080B584B050
:10111C0000AF3B1D00221A605A609A60184B194AA6
:10112C001A60174B00229A60154B00221A73144B4D
:10113C0000221A75124B4FF46022DA61104B002218
:10114C005A600F4B01221A610D4801F0E1FE034673
:10115C00002B01D000F070F900237B600123BB60F1
:10116C000023FB603B1D1946054801F0A9FF03460F
:10117C00002B01D000F060F900BF1037BD4680BDD8
:10118C00780000200024014080B500AF124B134AB8
:10119C001A60114B124A5A600F4B00229A600E4B88
:1011AC000022DA600C4B4FF480421A610A4B002289
:1011BC005A61094B00229A61074B0022DA61064BF7
:1011CC0000221A62044802F06DFC0346002B01D089
:1011DC0000F032F900BF80BDA8000020005800408C
:1011EC00801A060080B596B000AF07F148030022C4
:1011FC001A605A609A60DA6007F1400300221A60A4
:10120C005A6007F1240300221A605A609A60DA606F
:10121C001A615A619A613B1D20220021184604F084
:10122C00DFFC3E4B3E4A1A603C4B00225A603B4B63
:10123C0000229A60394B4FF6FF72DA60374B00226E
:10124C001A61364B00225A61344B80229A61334822
:10125C0003F050FE0346002B01D000F0EDF84FF4E4
:10126C008053BB6407F1480319462C4804F04EF830
:10127C000346002B01D000F0DFF8284803F089FE6C
:10128C000346002B01D000F0D7F800233B64002369
:10129C007B6407F140031946204804F0A3FB034686
:1012AC00002B01D000F0C8F860237B620023BB62E6
:1012BC000023FB6200233B6300237B630023BB639F
:1012CC000023FB6307F1240300221946134803F0A3
:1012DC005BFF0346002B01D000F0AEF800237B60CF
:1012EC000023BB600023FB6000233B6100237B6178
:1012FC004FF40053BB6100233B623B1D194607486A
:10130C0004F0CEFB0346002B01D000F095F8034807
:10131C0001F0B6FC00BF5837BD4680BDFC00002074
:10132C00002C014080B588B000AF07F110030022FB
:10133C001A605A609A60DA603B4B9B693A4A43F0F8
:10134C0010039361384B9B6903F01003FB60FB683F
:10135C00354B9B69344A43F020039361324B9B69B4
:10136C0003F02003BB60BB682F4B9B692E4A43F0F4
:10137C00040393612C4B9B6903F004037B607B6833
:10138C00294B9B69284A43F008039361264B9B69C0
:10139C0003F008033B603B6800224FF400512348E4
:1013AC0002F04FFB00224FF47E71214802F049FB02
:1013BC004FF400533B6101237B610023BB6102238B
:1013CC00FB6107F110031946184802F09FF94FF41E
:1013DC0040433B6100237B610123BB6107F1100398
:1013EC001946124802F092F94FF400433B61002376
:1013FC007B610123BB6107F1100319460D4802F014
:10140C0085F94FF47E733B6101237B610023BB6143
:10141C000223FB6107F110031946054802F076F927
:10142C0000BF2037BD4680BD0010024000100140B7
:10143C00000C01400008014080B400AF72B600BF40
:10144C0000BFFDE780B400AF00BFBD4680BC704755
:10145C0080B586B004AF0346FB714FF0FF330293A7
:10146C0001230193FB1D00930123002278210348E3
:10147C0002F05CFC00BF0837BD4680BDA800002010
:10148C0080B586B004AF786039603B689BB24FF092
:10149C00FF32029201937B68009301234022782152
:1014AC00034802F043FC00BF0837BD4680BD00BFB7
:1014BC00A800002080B500AFFFF7C4FF642001F046
:1014CC0003FD002000F060FF2020FFF7C1FF00208B
:1014DC00FFF7BEFFB020FFF7BBFFC820FFF7B8FF38
:1014EC000020FFF7B5FF1020FFF7B2FF4020FFF7F9
:1014FC00AFFFFF2000F035FFA120FFF7A9FFA620CA
:10150C00FFF7A6FFA820FFF7A3FF3F20FFF7A0FFE0
:10151C00A420FFF79DFFD320FFF79AFF0020FFF7D1
:10152C0097FFD520FFF794FFF020FFF791FFD9200C
:10153C00FFF78EFF2220FFF78BFFDA20FFF788FFE3
:10154C001220FFF785FFDB20FFF782FF2020FFF73B
:10155C007FFF8D20FFF77CFF1420FFF779FF012020
:10156C0000F012FF002000F00FF800F025F8054BFA
:10157C0000221A80034B00225A80024B01221A715E
:10158C0000BF80BD4405002080B582B000AF03468B
:10159C00FB71FB79002B01D1002300E0FF234FF4FA
:1015AC0080621946034804F01BFB00BF0837BD4698
:1015BC0080BD00BF4401002080B582B000AF002385
:1015CC00FB7116E0FB79503BDBB21846FFF740FF8E
:1015DC000020FFF73DFF1020FFF73AFFFB79DB01FE
:1015EC00084A134480211846FFF74AFFFB79013360
:1015FC00FB71FB79072BE5D900BF00BF0837BD464F
:10160C0080BD00BF4401002080B483B000AF03460E
:10161C00FB710B46BB7113467B7197F90730002B9E
:10162C003DDBBB793F2B3AD87B79012B1AD1FA7968
:10163C00BB79DB08D8B20346DB0113441A4AD35CEE
:10164C005AB2BB7903F00703012101FA03F35BB231
:10165C00134359B2FA790346DB011344C9B2124A57
:10166C00D1541DE0FA79BB79DB08D8B20346DB0113
:10167C0013440D4AD35C5AB2BB7903F00703012122
:10168C0001FA03F35BB2DB435BB2134059B2FA7954
:10169C000346DB011344C9B2034AD15400E000BF36
:1016AC000C37BD4680BC70474401002090B589B012
:1016BC0000AF0446384680E80E002346FB73FB7BE4
:1016CC001F2B02D9FB7B7E2B01D9002377E03E4BED
:1016DC001B881A463B781344802B06DC3A4B5B88FC
:1016EC001A467B781344402B01DD002367E000236E
:1016FC00FB614EE07A68FB7B203B797801FB03F3BE
:10170C001946FB690B445B0013441B887B61002367
:10171C00BB6136E07A69BB6902FA03F303F4004358
:10172C00002B13D0284B1B88DAB2BB69DBB21344F5
:10173C00D8B2254B5B88DAB2FB69DBB21344DBB25F
:10174C0097F830201946FFF75FFF17E01E4B1B88F8
:10175C00DAB2BB69DBB21344D8B21B4B5B88DAB28A
:10176C00FB69DBB21344D9B297F83030002B0CBFB5
:10177C0001230023DBB21A46FFF746FFBB69013396
:10178C00BB613B781A46BB699342C3D3FB690133F7
:10179C00FB617B781A46FB699342ABD30A4B1B88DF
:1017AC00BA68002A05D0B968FA7B203A0A44127844
:1017BC0000E03A7813449AB2034B1A80FB7B18462C
:1017CC002437BD4690BD00BF4405002080B586B0CF
:1017DC0002AFF860384680E80E0013E0FB6818781A
:1017EC003B7E00933B460ECBFFF760FF03461A4649
:1017FC00FB681B789A4202D0FB681B7808E0FB68F8
:10180C000133FB60FB681B78002BE7D1FB681B786E
:10181C0018461037BD4680BD80B483B000AF034678
:10182C000A46FB711346BB71FB799AB2054B1A80C1
:10183C00BB799AB2034B5A8000BF0C37BD4680BCB3
:10184C00704700BF4405002090B589B000AF044636
:10185C00084611461A462346FB710346BB710B46DC
:10186C007B7113463B717A79FB79D31A002BB8BF85
:10187C005B42BB613A79BB79D31A002BB8BF5B4290
:10188C007B61FA797B799A4201D2012301E04FF016
:10189C00FF333B61BA793B799A4201D2012301E0D3
:1018AC004FF0FF33FB60BA697B69D31AFB6197F881
:1018BC00302039797B791846FFF7A6FE24E097F89B
:1018CC003020B979FB791846FFF79EFEFB695B0067
:1018DC00BB607B695B42BA689A4208DDFA697B6936
:1018EC00D31AFB613B69DAB2FB791344FB71BA681A
:1018FC00BB699A4208DAFA69BB691344FB61FB685D
:10190C00DAB2BB791344BB71FA797B799A42D6D19E
:10191C00BA793B799A42D2D100BF2437BD4690BDEB
:10192C0090B587B002AF78600B467B8013467B7016
:10193C007B68002B2AD00123FB8122E0FB8903F179
:10194C000043013B5B007A6813441878FB8903F170
:10195C000043013B5B007A6813445978FB895B00B8
:10196C007A6813441C78FB895B007A6813445A78B4
:10197C007B78009313462246FFF766FFFB89013301
:10198C00FB81FA897B889A42D8D300E000BF1437D8
:10199C00BD4690BD80B582B000AF786004497868D0
:1019AC00FFF7D2F8034618460837BD4680BD00BF86
:1019BC00A7E78E3C80B485B000AF0346FB80FB8864
:1019CC00B3F5B47F02D8FB88FB8113E0FB88DA08FF
:1019DC000B49A1FB021292084FF4B47101FB02F205
:1019EC009B1AFB81FB89002B01D0FB8901E04FF492
:1019FC00B473FB81FB8918461437BD4680BC704715
:101A0C00176CC11690B58BB002AF04460846114650
:101A1C001A462346FB710346BB710B467B7113467A
:101A2C007B803B8E1846FFF7C5FF03467B617B88A6
:101A3C001846FFF7BFFF03461A46604B1B7802FBA4
:101A4C0003F35F4A82FB03121A441212DB17D31AF8
:101A5C00FB615A4B1B781A467B6902FB03F3DB08CC
:101A6C00584AA2FB03239B083B617869FFF714F8E3
:101A7C0004463869FFF710F8034619462046FFF76D
:101A8C0017F90346FB608FE0F869FFF705F803468A
:101A9C00F9681846FFF758F803461846FFF77AFF1F
:101AAC00B861B86904F04AFD04467B791846FEF724
:101ABC00F7FF034619462046FFF746F8034618463B
:101ACC00FFF708FA03465BB2DAB2FB791344FB72F8
:101ADC00B86904F0FBFC04467B791846FEF7E0FF7E
:101AEC00034619462046FFF72FF803461846FFF722
:101AFC00F1F903465BB2DAB2BB791344BB72FB69F2
:101B0C000133FB61FA693B699A420DD0F869FEF723
:101B1C00C3FF0346F9681846FFF716F80346184644
:101B2C00FFF738FFB86107E07869FEF7B5FF0346A9
:101B3C001846FFF72FFFB861B86904F0FFFC0446A4
:101B4C007B791846FEF7ACFF034619462046FEF794
:101B5C00FBFF03461846FFF7BDF903465BB2DAB24A
:101B6C00FB7913447B72B86904F0B0FC04467B79B2
:101B7C001846FEF795FF034619462046FEF7E4FF8C
:101B8C0003461846FFF7A6F903465BB2DAB2BB79F7
:101B9C0013443B723C7A7A7AB97AF87A97F83430F3
:101BAC0000932346FFF750FEFA693B699A42FFF413
:101BBC006BAF00BF2437BD4690BD00BFB6710008A7
:101BCC00B7600BB6176CC11690B58DB002AF04465A
:101BDC00084611461A462346FB710346BB710B4659
:101BEC007B7113467B802423BB61002387F827304D
:101BFC00002387F826303B8F1846FFF7DBFE0346A1
:101C0C007B617B881846FFF7D5FE03461A46BB69F5
:101C1C0002FB03F3DB08864AA2FB03239B083B620F
:101C2C007B69BA6902FB03F3DB08814AA2FB03233D
:101C3C009B083B617869FEF72FFF04463869FEF775
:101C4C002BFF034619462046FFF732F80346FB608C
:101C5C00386AFEF721FF0346F9681846FEF774FF51
:101C6C0003461846FFF796FEF861F86904F066FC27
:101C7C0004467B791846FEF713FF034619462046A7
:101C8C00FEF762FF03461846FFF724F903465BB2E2
:101C9C00DAB2FB791344FB72F86904F017FC0446C2
:101CAC007B791846FEF7FCFE034619462046FEF7E4
:101CBC004BFF03461846FFF70DF903465BB2DAB249
:101CCC00BB791344BB7293E0386AFEF7E5FE03461A
:101CDC00F9681846FEF738FF03461846FFF75AFE18
:101CEC00F861F86904F02AFC04467B791846FEF783
:101CFC00D7FE034619462046FEF726FF0346184634
:101D0C00FFF7E8F803465BB2DAB2FB7913447B7257
:101D1C00F86904F0DBFB04467B791846FEF7C0FE3D
:101D2C00034619462046FEF70FFF03461846FFF7F9
:101D3C00D1F803465BB2DAB2BB7913443B723B6A0F
:101D4C0001333B623A6A3B699A420DD0386AFEF71E
:101D5C00A3FE0346F9681846FEF7F6FE034618463E
:101D6C00FFF718FEF86107E07869FEF795FE034669
:101D7C001846FFF70FFEF861F86904F0DFFB044624
:101D8C007B791846FEF78CFE034619462046FEF773
:101D9C00DBFE03461846FFF79DF803465BB2DAB24A
:101DAC00FB79134487F82730F86904F08FFB04465D
:101DBC007B791846FEF774FE034619462046FEF75B
:101DCC00C3FE03461846FFF785F803465BB2DAB24A
:101DDC00BB79134487F8263097F8264097F82720CC
:101DEC00397A787A97F83C3000932346FFF72CFD2C
:101DFC003A6A3B699A42FFF467AFBC7AFA7AB979CE
:101E0C00F87997F83C3000932346FFF71DFD97F8BF
:101E1C00264097F82720B979F87997F83C30009349
:101E2C002346FFF711FD00BF2C37BD4690BD00BF08
:101E3C00176CC11690B587B000AF04460846114622
:101E4C001A462346FB710346BB710B467B71134646
:101E5C003B717B795B427B6100233B617B79C3F1F6
:101E6C0001035B00FB6097F90730002B65DBBB7946
:101E7C003F2B62D87B69DBB2FA79D31AD8B23B69B3
:101E8C00DAB2BB791344DBB23A791946FFF7BCFBE3
:101E9C007B69DAB2FB791344D8B23B69DAB2BB790D
:101EAC001344DBB23A791946FFF7AEFB7B69DAB221
:101EBC00FB791344D8B23B69DBB2BA79D31ADBB2E3
:101ECC003A791946FFF7A0FB7B69DBB2FA79D31A92
:101EDC00D8B23B69DBB2BA79D31ADBB23A7919467C
:101EEC00FFF792FBFB68BB60BA683B699A4213DC54
:101EFC003B6901333B613B695B000133FA68134476
:101F0C00FB607B695B423A699A4205D1BA687B698E
:101F1C009A4201DC0023BB60BA687B699A4208DDF7
:101F2C007B6901337B617B695B000133FA68134485
:101F3C00FB607B69002B9DDD00E000BF1C37BD46BC
:101F4C0090BD90B589B000AF0446084611461A46BC
:101F5C002346FB710346BB710B467B7113463B71E9
:101F6C007B795B42FB610023BB617B79C3F101038D
:101F7C005B007B6197F90730002B51DBBB793F2B62
:101F8C004ED8BB69DAB2BB791344FB7317E0FB691B
:101F9C00DBB2FA79D31ABB7308E03A79F97BBB7BD5
:101FAC001846FFF731FBBB7B013BBB73BA7BF9795E
:101FBC00FB690B449A42F0DAFB7B013BFB73FA7B27
:101FCC00B979BB69CB1A9A42E1DA7B693B613A6910
:101FDC00BB699A4213DCBB690133BB61BB695B0013
:101FEC0001337A6913447B61FB695B42BA699A429B
:101FFC0005D13A69FB699A4201DC00233B613A69DD
:10200C00FB699A4208DDFB690133FB61FB695B00EC
:10201C0001337A6913447B61FB69002BB1DD00E06D
:10202C0000BF2437BD4690BD90B585B002AF0446C5
:10203C00084611461A462346FB710346BB710B46F4
:10204C007B7113463B71BC797A79B979F8793B7E0F
:10205C0000932346FFF7F8FB3C797A79B9797879C4
:10206C003B7E00932346FFF7EFFB3C79FA793979F5
:10207C0078793B7E00932346FFF7E6FBBC79FA792F
:10208C003979F8793B7E00932346FFF7DDFB00BFDF
:10209C000C37BD4690BD90B585B000AF04460846E0
:1020AC0011461A462346FB710346BB710B467B71E6
:1020BC0013463B71FA797B79934228BF13467B73A5
:1020CC007A79FB79934238BF13463B73BA793B79E3
:1020DC00934228BF1346FB723A79BB79934238BFBF
:1020EC001346BB72FB7AFB7317E07B7BBB7309E077
:1020FC0097F82020F97BBB7B1846FFF785FABB7B52
:10210C000133BB73BA7B3B7B9A4203D897F90E30F1
:10211C00002BEDDAFB7B0133FB73FA7BBB7A9A4223
:10212C0003D8FB7B3F2BE0D900BF00BF1437BD4663
:10213C0090BD000090B486B000AF0446084611462E
:10214C001A462346FB710346BB710B467B71134643
:10215C003B7197F90530002B02DB3B793F2B01D902
:10216C0001239CE0FA797B799A4203D8BA793B79BE
:10217C009A4201D9012392E0BB79DB08DAB23B79B0
:10218C00DB08DBB29A4257D0FB793B614FE0BB795D
:10219C00DB08DBB2DB011A463B6913447B61424A24
:1021AC007B6913441B785AB2BB7903F00703FF21F8
:1021BC0001FA03F35BB253405BB2D9B23A4A7B6982
:1021CC0013440A461A707B6980337B610DE0364AF2
:1021DC007B6913441B78DB43D9B2334A7B691344C4
:1021EC000A461A707B6980337B613B79DB08DBB272
:1021FC00DB011A463B6913447A699A42E7D32A4AAF
:10220C007B6913441B785AB23B79DB4303F0070319
:10221C00FF2141FA03F35BB253405BB2D9B2224ABD
:10222C007B6913440A461A703B6901333B617B7925
:10223C003A699A42ABD931E0BB7903F00703FF222C
:10224C0002FA03F35AB23B79DB4303F00703FF2195
:10225C0041FA03F35BB213405BB2FB73FA79BB79BF
:10226C00DB08DBB2DB0113447B610EE00E4A7B69B9
:10227C0013441A78FB7B5340D9B20B4A7B69134445
:10228C000A461A707B6901337B617B793A79D208F3
:10229C00D2B2D20113447A699A42E7D90023184684
:1022AC001837BD4690BC70474401002080B584B0FF
:1022BC0000AF3A601A460346FB710B46BB711346DE
:1022CC007B717B790733002B00DA0733DB107B81C2
:1022DC000023FB7397F90730002B3EDBBB793F2BB8
:1022EC003BD80023BB7333E000237B7326E07B7B5E
:1022FC0003F00703002B03D0FB7B5B00FB730DE0AB
:10230C00BB7BB7F90A2002FB03F37A7BD208D2B26B
:10231C0013441A463B6813441B78FB7397F90F3030
:10232C00002B08DAFA797B7B1344DBB23A7FB9795C
:10233C001846FFF769F97B7B01337B737A7B7B79DA
:10234C009A42D4D3BB7B0133BB73BB790133BB71D2
:10235C00BA7B3B7E9A42C7D300E000BF1037BD4624
:10236C0080BD80B584B000AF0346FB718123FB7345
:10237C00FB7B1846FFF76CF8FB791846FFF768F8FB
:10238C0000BF1037BD4680BD80B584B000AF03469A
:10239C00FB71FB79002B05D0AF23FB73084B01229B
:1023AC005A7104E0AE23FB73054B00225A71FB7B80
:1023BC001846FFF74DF800BF1037BD4680BD00BF73
:1023CC004405002080B582B000AF0020FFF7DCF898
:1023DC000023FB710023BB71B979FB7900221846ED
:1023EC00FFF712F9BB79002B06D1FB797E2B03D8B2
:1023FC00FB790133FB7116E0FB797F2B06D1BB799E
:10240C003E2B03D8BB790133BB710CE0BB793F2B5E
:10241C0006D1FB79002B03D0FB79013BFB7102E069
:10242C00BB79013BBB71B979FB7901221846FFF7E7
:10243C00EBF8FFF7C1F8052000F046FDFB79002B07
:10244C00CAD1BB79002BC7D14FF47A7000F03CFD98
:10245C0000BF0837BD4680BD80B584B002AF0023F5
:10246C00FB710020FFF790F8FB7919460220FFF76B
:10247C00D3F91D4B012200920ECB1C48FFF7A6F995
:10248C00FB791A33FB71FB7919460220FFF7C4F96B
:10249C00174B012200920ECB1648FFF797F9FB79E8
:1024AC001233FB71FB7919460220FFF7B5F9124B79
:1024BC00012200920ECB1148FFF788F9FB790A3301
:1024CC00FB71FB7919460220FFF7A6F90C4B012290
:1024DC0000920ECB0B48FFF779F9FFF76DF800BFB0
:1024EC000837BD4680BD00BF34BD0008F070000841
:1024FC0028BD0008FC7000081CBD0008087100080D
:10250C0010BD00081471000890B585B002AF002012
:10251C00FFF73AF804210020FFF77EF9144B012253
:10252C0000920ECB1348FFF751F924210020FFF73E
:10253C0073F90F4B012200920ECB0F48FFF746F9AF
:10254C006023FB713C23BB71FB7910337B71BB792E
:10255C0002333B713B797A79B979F879012400948B
:10256C00FFF799FDFFF728F800BF0C37BD4690BD6B
:10257C0040BD0008207100082C71000880B582B0A5
:10258C0002AF0020FFF700F804210420FFF744F904
:10259C00104B012200920ECB0F48FFF717F91821B0
:1025AC000420FFF739F90B4B012200920ECB0B489C
:1025BC00FFF70CF92C210420FFF72EF9054B012213
:1025CC0000920ECB0648FFF701F9FEF7F5FF00BFAE
:1025DC00BD4680BD4CBD000838710008487100082C
:1025EC0058710008B0B59AB002AF0120FEF7CCFFCD
:1025FC0000F060FCB865BB6D7B650023FB65444A4D
:10260C0007F1440307CA83E8070000210220FFF703
:10261C0003F9404B002200920ECB3F48FFF7D6F84F
:10262C0024210220FFF7F8F83A4B002200920ECB3F
:10263C003A48FFF7CBF812210220FFF7EDF8354BA3
:10264C0007F14400002200920ECBFFF7BFF8FEF713
:10265C00B3FF97F8443087F8533007F14403013344
:10266C0007F144000A22194603F0A0FA97F85330F8
:10267C0087F84E30FB6D0133FB6500F01BFC786571
:10268C007A6DBB6DD31A41F287329342D3D941F2A2
:10269C00883000F019FCF86DFEF702FA0346184674
:1026AC00FDF7B2FE04460D467A6DBB6DD31A184683
:1026BC00FDF788FE4FF00002194BFEF727F8024693
:1026CC000B4620462946FEF721F802460B461046DB
:1026DC001946FEF703F90346FB65381DFB6D114ADD
:1026EC00402103F02FFA0120FEF74EFF02210220B9
:1026FC00FFF792F8074B381D002200920ECBFFF724
:10270C0065F8FEF759FF00BF6037BD46B0BD00BF8E
:10271C008871000828BD00086871000874710008F1
:10272C0000408F408071000880B582B002AF012359
:10273C0000933F237F2201210120FFF785F801231D
:10274C0000933F23012201217F20FFF77DF8FEF744
:10275C0033FF00BFBD4680BD90B585B002AF0023EE
:10276C007B6028E07B68DBB21A4692001344DBB234
:10277C000133D8B27B68DBB21A4692001344DBB249
:10278C000133D9B27B68DBB21A4692001344DBB238
:10279C00C3F17F03DAB27B68DBB21C46A40023448E
:1027AC00DBB2C3F13F03DBB201240094FFF73CFC26
:1027BC007B6801337B607B68042BD3D9FEF7FCFE6E
:1027CC0000BF0C37BD4690BD80B582B002AF01236F
:1027DC0000932323412201211F20FFF75CFC0123DE
:1027EC0000933C2346222D210A20FFF754FC0123A1
:1027FC0000932D2364220A214B20FFF74CFC00236D
:10280C000093372350221E213720FFF744FCFEF79C
:10281C00D3FE00BFBD4680BD80B582B002AF0021A3
:10282C000220FEF7F9FF274B012200920ECB26481F
:10283C00FEF7CCFF14210220FEF7EEFF214B012204
:10284C0000920ECB2148FEF7C1FF28210220FEF793
:10285C00E3FF1C4B012200920ECB1D48FEF7B6FF86
:10286C0000214220FEF7D8FF164B012200920ECB1E
:10287C001748FEF7ABFF14214220FEF7CDFF114B9A
:10288C00012200920ECB1148FEF7A0FF2821422016
:10289C00FEF7C2FF0B4B012200920ECB0A48FEF74B
:1028AC0095FF3F233F2200210020FFF743FC3C23F0
:1028BC007D223A210220FFF73DFCFEF77DFE00BF92
:1028CC00BD4680BD28BD0008947100089C710008AD
:1028DC00A071000880B582B000AF00237B6010E0CF
:1028EC007B68DBB21A46920013449B00DBB21E33AA
:1028FC00D8B201230A220F21FFF79CFA7B6801331F
:10290C007B607B68042BEBD900237B6011E07B6838
:10291C00DBB21A4652001A44D200D31ADBB20F3380
:10292C00D8B201230A222821FFF70BFB7B68013365
:10293C007B607B68042BEAD9FEF73EFE00BF0837AC
:10294C00BD4680BD80B582B002AF012301934FF428
:10295C008773009314231E221E211E20FFF752F8AA
:10296C00012301934FF4877300931E230A2237210E
:10297C005020FFF729F9FEF71FFE00BFBD4680BDB2
:10298C0090B585B000AF084B3C460FCB07C42380F5
:10299C003B46012207211846FEF7C2FFFEF70CFE4C
:1029AC0000BF1437BD4690BDA871000880B582B039
:1029BC0002AF0120FEF7E8FD0023019340230093B2
:1029CC008023184A00210020FFF770FCFEF7F4FD6D
:1029DC0040F6B83000F078FA0020FEF7D5FD012360
:1029EC0001934023009340230F4A00212020FFF73E
:1029FC005DFCFEF7E1FD40F6B83000F065FA012011
:102A0C00FEF7C2FD00230193402300934023064AA6
:102A1C0000212020FFF74AFCFEF7CEFD00BFBD468B
:102A2C0080BD00BF58BD000858C1000880B500AF7C
:102A3C00FEF740FDFFF7D6FD40F6B83000F044FA43
:102A4C00FFF7C0FCFFF708FD40F6B83000F03CFA89
:102A5C00FFF75AFD40F6B83000F036FAFFF78EFD5E
:102A6C0040F6B83000F030FA0020FEF78DFDFFF78D
:102A7C0073FEFFF759FE40F6B83000F025FA00203F
:102A8C00FEF782FDFFF7A0FE40F6B83000F01CFA0E
:102A9C000020FEF779FDFFF7BFFE40F6B83000F0DE
:102AAC0013FA0020FEF770FDFFF76AFF40F6B8300E
:102ABC0000F00AFA0020FEF767FDFFF743FF40F62F
:102ACC00B83000F001FA0020FEF75EFDFFF702FFC0
:102ADC0040F6B83000F0F8F9FFF768FF40F6B83070
:102AEC0000F0F2F900BF80BD80B485B000AF154B8B
:102AFC009B69144A43F001039361124B9B6903F0E9
:102B0C000103BB60BB680F4BDB690E4A43F080537B
:102B1C00D3610C4BDB6903F080537B607B680A4B01
:102B2C005B68FB60FB6823F0E063FB60FB6843F0D1
:102B3C000073FB60044AFB68536000BF1437BD464A
:102B4C0080BC7047001002400000014080B588B086
:102B5C0000AF786007F1100300221A605A609A6087
:102B6C00DA607B681B68144A934221D1134B9B6932
:102B7C00124A43F400739361104B9B6903F4007386
:102B8C00FB60FB680D4B9B690C4A43F0040393619B
:102B9C000A4B9B6903F00403BB60BB6801233B61D8
:102BAC0003237B6107F110031946054800F0AEFDC5
:102BBC0000BF2037BD4680BD0024014000100240FC
:102BCC000008014080B588B000AF786007F11003B1
:102BDC0000221A605A609A60DA607B681B68164A99
:102BEC00934224D1154B9B69144A43F0080393611B
:102BFC00124B9B6903F00803FB60FB684FF44063C6
:102C0C003B6112237B610323FB6107F1100319461F
:102C1C000B4800F07BFD094BDB69084A43F4800349
:102C2C00D361064BDB6903F48003BB60BB6800BF58
:102C3C002037BD4680BD00BF005800400010024048
:102C4C00000C014080B485B000AF78607B681B68D5
:102C5C00094A93420BD1094B9B69084A43F4006320
:102C6C009361064B9B6903F40063FB60FB6800BF38
:102C7C001437BD4680BC7047002C01400010024048
:102C8C0080B588B000AF786007F1100300221A609D
:102C9C005A609A60DA607B681B68104A934218D1BC
:102CAC000F4B9B690E4A43F0040393610C4B9B69D9
:102CBC0003F00403FB60FB684FF480733B61022359
:102CCC007B610223FB6107F110031946054800F0F4
:102CDC001DFD00BF2037BD4680BD00BF002C01404C
:102CEC00001002400008014080B400AF00BFFDE7B7
:102CFC0080B400AF00BFFDE780B400AF00BFFDE7BC
:102D0C0080B400AF00BFFDE780B400AF00BFFDE7AB
:102D1C0080B400AF00BFBD4680BC704780B400AF2C
:102D2C0000BFBD4680BC704780B400AF00BFBD463D
:102D3C0080BC704780B500AF00F0AAF800BF80BD22
:102D4C0080B586B000AF7860144A154BD31A7B61FE
:102D5C007B693B61134B1B68002B02D1114B124A50
:102D6C001A60104B1A687B6813443A699A4207D26E
:102D7C0002F03EFF03460C221A604FF0FF3309E0CD
:102D8C00084B1B68FB60074B1A687B681344054AA9
:102D9C001360FB6818461837BD4680BD00500020F4
:102DAC00000400004C050020A006002080B400AFF9
:102DBC0000BFBD4680BC7047FFF7F8FF0B480C49BD
:102DCC000C4A002302E0D458C4500433C4188C427B
:102DDC00F9D3094A094C002301E013600432A242E2
:102DEC00FBD302F00BFFFEF79BF8704700000020AE
:102DFC005C000020A4C700085C0000209C0600209A
:102E0C00FEE7000080B500AF084B1B68074A43F093
:102E1C0010031360032000F045FC0F2000F008F8AD
:102E2C00FFF762FE0023184680BD00BF0020024061
:102E3C0080B582B000AF7860124B1A68124B1B78C9
:102E4C0019464FF47A73B3FBF1F3B2FBF3F3184664
:102E5C0000F04FFC0346002B01D001230EE07B68F1
:102E6C000F2B0AD8002279684FF0FF3000F025FCB8
:102E7C00064A7B681360002300E0012318460837DC
:102E8C00BD4680BD0000002008000020040000208A
:102E9C0080B400AF054B1B781A46054B1B681344D6
:102EAC00034A136000BFBD4680BC70470800002079
:102EBC005005002080B400AF024B1B681846BD467D
:102ECC0080BC70475005002080B584B000AF78609E
:102EDC00FFF7F0FFB8607B68FB60FB68B3F1FF3F66
:102EEC0005D00A4B1B781A46FB681344FB6000BFE5
:102EFC00FFF7E0FF0246BB68D31AFA689A42F7D88C
:102F0C0000BF00BF1037BD4680BD00BF08000020C9
:102F1C0080B586B000AF78600023FB7500233B6161
:102F2C000023BB600023FB607B68002B01D10123D5
:102F3C00BEE07B689B68002B7B689B6A002B09D1E9
:102F4C007B680022DA627B68002283F82420786890
:102F5C00FFF7FCFD786800F005FA0346FB757B680B
:102F6C009B6A03F01003002B40F09980FB7D002B33
:102F7C0040F095807B689B6A23F4885323F002030E
:102F8C0043F002027B689A627B685A687B68DB6953
:102F9C001A437B681B7B5B001343BA681343BB600B
:102FAC007B689B68B3F5807F03D07B689B68012BA3
:102FBC0002D14FF4807300E000233A6913433B6164
:102FCC007B681B7D012B19D17B681B7B002B09D1E6
:102FDC007B689B69013B5A033B69134343F40063D1
:102FEC003B610BE07B689B6A43F020027B689A6232
:102FFC007B68DB6A43F001027B68DA627B681B68E2
:10300C005B6823F469417B681B683A690A435A6020
:10301C007B681B689A68284B13407A681268B968F9
:10302C000B4393607B689B68B3F5807F03D07B6810
:10303C009B68012B04D17B681B69013B1B05FB6062
:10304C007B681B68DB6A23F470017B681B68FA6879
:10305C000A43DA627B681B689A68184B1340BA689B
:10306C009A420BD17B680022DA627B689B6A23F060
:10307C00030343F001027B689A6218E07B689B6A49
:10308C0023F0120343F010027B689A627B68DB6AC0
:10309C0043F001027B68DA620123FB7507E07B6871
:1030AC009B6A43F010027B689A620123FB75FB7DDF
:1030BC0018461837BD4680BDFDF7E1FFFE0E1FFF19
:1030CC0080B485B000AF786039600023FB730023B7
:1030DC00BB607B6893F82430012B01D10223DCE028
:1030EC007B68012283F824203B685B68062B1CD884
:1030FC007B681B68596B3B685A6813469B001344EA
:10310C00053B1F2202FA03F3DB4319403B681868A6
:10311C003B685A6813469B001344053B00FA03F2C4
:10312C007B681B680A435A633CE03B685B680C2B6A
:10313C001CD87B681B68196B3B685A6813469B004C
:10314C001344233B1F2202FA03F3DB4319403B6871
:10315C0018683B685A6813469B001344233B00FADB
:10316C0003F27B681B680A431A631BE07B681B68CD
:10317C00D96A3B685A6813469B001344413B1F2293
:10318C0002FA03F3DB4319403B6818683B685A6842
:10319C0013469B001344413B00FA03F27B681B6807
:1031AC000A43DA623B681B68092B1CD97B681B68D5
:1031BC00D9683B681A6813465B0013441E3B072210
:1031CC0002FA03F3DB4319403B6898683B681A68C2
:1031DC0013465B0013441E3B00FA03F27B681B682A
:1031EC000A43DA6019E07B681B6819693B681A6846
:1031FC0013465B001344072202FA03F3DB43194026
:10320C003B6898683B681A6813465B00134400FAE5
:10321C0003F27B681B680A431A613B681B68102B1E
:10322C0003D03B681B68112B32D17B681B681D4A8D
:10323C00934225D17B681B689B6803F40003002B29
:10324C0026D17B681B689A687B681B6842F4000275
:10325C009A603B681B68102B1AD1134B1B68134ADE
:10326C00A2FB03239A0C13469B0013445B00BB6028
:10327C0002E0BB68013BBB60BB68002BF9D107E0E7
:10328C007B689B6A43F020027B689A620123FB7384
:10329C007B68002283F82420FB7B18461437BD463C
:1032AC0080BC7047002401400000002083DE1B43DB
:1032BC0080B584B000AF78600023FB600023BB6056
:1032CC007B681B689B6803F00103012B40D07B6873
:1032DC001B689A687B681B6842F001029A601F4B5E
:1032EC001B681F4AA2FB03239B0CBB6002E0BB685C
:1032FC00013BBB60BB68002BF9D1FFF7DBFDF8602D
:10330C001FE0FFF7D7FD0246FB68D31A022B18D932
:10331C007B681B689B6803F00103012B11D07B6851
:10332C009B6A43F010027B689A627B68DB6A43F00D
:10333C0001027B68DA627B68002283F82420012377
:10334C0007E07B681B689B6803F00103012BD8D155
:10335C00002318461037BD4680BD00BF000000207A
:10336C0083DE1B4380B584B000AF78600023FB6024
:10337C007B681B689B6803F00103012B2ED17B68D3
:10338C001B689A687B681B6822F001029A60FFF741
:10339C0091FDF8601BE0FFF78DFD0246FB68D31A28
:1033AC00022B14D97B681B689B6803F00103012B6B
:1033BC000DD17B689B6A43F010027B689A627B6834
:1033CC00DB6A43F001027B68DA62012307E07B6869
:1033DC001B689B6803F00103012BDCD0002318460B
:1033EC001037BD4680BD000090B587B000AF786047
:1033FC000023FB750023FB607B6893F82430012BC2
:10340C0001D1022397E07B68012283F8242078689D
:10341C00FFF7A8FF0346FB757868FFF749FF0346E3
:10342C00FB75FB7D002B40F081807B689B6A23F44D
:10343C00885323F0020343F002027B689A62404BEC
:10344C001C68022001F0A0FC0346B4FBF3F35B0004
:10345C00FB6002E0FB68013BFB60FB68002BF9D1D1
:10346C007B681B689A687B681B6842F008029A604C
:10347C00FFF720FD38611BE0FFF71CFD02463B699E
:10348C00D31A0A2B14D97B681B689B6803F00803BA
:10349C00002B0DD07B689B6A23F0120343F01002C3
:1034AC007B689A627B68002283F82420012342E027
:1034BC007B681B689B6803F00803002BDCD17B68DE
:1034CC001B689A687B681B6842F004029A60FFF7DD
:1034DC00F1FC38611BE0FFF7EDFC02463B69D31AA7
:1034EC000A2B14D97B681B689B6803F00403002B20
:1034FC000DD07B689B6A23F0120343F010027B68AB
:10350C009A627B68002283F82420012313E07B68F5
:10351C001B689B6803F00403002BDCD17B689B6A5F
:10352C0023F0030343F001027B689A627B6800225C
:10353C0083F82420FB7D18461C37BD4690BD00BF88
:10354C000000002080B485B000AF78607B6803F089
:10355C000703FB600C4BDB68BB60BA684FF6FF03DC
:10356C001340BB60FB681A02BB68134343F0BF6394
:10357C0043F40033BB60044ABB68D36000BF14370C
:10358C00BD4680BC704700BF00ED00E080B400AFCA
:10359C00044BDB681B0A03F007031846BD4680BCCE
:1035AC00704700BF00ED00E080B483B000AF03466D
:1035BC003960FB7197F90730002B0ADB3B68DAB2F4
:1035CC000C4997F907301201D2B20B4483F800234F
:1035DC000AE03B68DAB20849FB7903F00F03043BBD
:1035EC001201D2B20B441A7600BF0C37BD4680BC18
:1035FC00704700BF00E100E000ED00E080B489B04E
:10360C0000AFF860B9607A60FB6803F00703FB61F8
:10361C00FB69C3F10703042B28BF0423BB61FB69BF
:10362C000433062B02D9FB69033B00E000237B61CA
:10363C004FF0FF32BB6902FA03F3DA43BB681A405E
:10364C007B699A404FF0FF317B6901FA03F3D94350
:10365C007B680B40134318462437BD4680BC70472B
:10366C0080B582B000AF78607B68013BB3F1807F9E
:10367C0001D301230FE00A4A7B68013B53600F2101
:10368C004FF0FF30FFF790FF054B00229A60044B80
:10369C0007221A60002318460837BD4680BD00BFBC
:1036AC0010E000E080B582B000AF78607868FFF77A
:1036BC0049FF00BF0837BD4680BD80B586B000AF5E
:1036CC000346B9607A60FB7300237B61FFF75EFFF2
:1036DC0078617A68B9687869FFF790FF024697F9C4
:1036EC000F3011461846FFF75FFF00BF1837BD4675
:1036FC0080BD80B582B000AF78607868FFF7B0FF0E
:10370C00034618460837BD4680BD000080B48BB018
:10371C0000AF7860396000237B6200233B6269E173
:10372C0001227B6A02FA03F3FB613B681B68FA69AE
:10373C001340BB61BA69FB699A4240F058813B68FF
:10374C005B689A4A93425ED0984A934275D8984ADD
:10375C00934258D0964A93426FD8964A934252D08D
:10376C00944A934269D8944A93424CD0924A9342D9
:10377C0063D8924A934246D0904A93425DD8122B1A
:10378C002AD8122B59D801A252F823F0133800086A
:10379C00ED370008FF3700084138000847380008AB
:1037AC0047380008473800084738000847380008F1
:1037BC0047380008473800084738000847380008E1
:1037CC0047380008473800084738000847380008D1
:1037DC00F537000809380008794A934213D02CE0D9
:1037EC003B68DB683B6229E03B68DB6804333B6287
:1037FC0024E03B68DB6808333B621FE03B68DB6816
:10380C000C333B621AE03B689B68002B02D104230B
:10381C003B6213E03B689B68012B05D108233B629C
:10382C007B68FA691A6109E008233B627B68FA69D4
:10383C005A6103E000233B6200E000BFBB69FF2B31
:10384C0001D87B6801E07B6804337B61BB69FF2B8B
:10385C0002D87B6A9B0002E07B6A083B9B003B61C1
:10386C007B691A680F213B6901FA03F3DB431A40A9
:10387C00396A3B6901FA03F31A437B691A603B68A6
:10388C005B6803F08053002B00F0B1804D4B9B69BB
:10389C004C4A43F0010393614A4B9B6903F00103CB
:1038AC00BB60BB68484A7B6A9B08023352F82330E2
:1038BC00FB607B6A03F003039B000F2202FA03F305
:1038CC00DB43FA681340FB607B68404A934213D099
:1038DC007B683F4A93420DD07B683E4A934207D0A7
:1038EC007B683D4A934201D1032306E0042304E0A4
:1038FC00022302E0012300E000237A6A02F00302B3
:10390C0092009340FA681343FB602F497B6A9B0833
:10391C000233FA6841F823203B685B6803F4801398
:10392C00002B06D02D4B9A682C49BB6913438B6036
:10393C0006E02A4B9A68BB69DB43284913408B602D
:10394C003B685B6803F40013002B06D0234BDA684A
:10395C002249BB691343CB6006E0204BDA68BB6994
:10396C00DB431E491340CB603B685B6803F40033B8
:10397C00002B06D0194B5A681849BB6913434B608E
:10398C0006E0164B5A68BB69DB43144913404B6085
:10399C003B685B6803F48033002B21D00F4B1A6813
:1039AC000E49BB6913430B6021E000BF00003210CD
:1039BC000000311000002210000021100000121035
:1039CC0000001110001002400000014000080140EE
:1039DC00000C0140001001400014014000040140A3
:1039EC000B4B1A68BB69DB43094913400B607B6ABC
:1039FC0001337B623B681A687B6A22FA03F3002B63
:103A0C007FF48EAE00BF00BF2C37BD4680BC704724
:103A1C000004014080B485B000AF78600B467B8019
:103A2C007B689A687B881340002B02D00123FB73C0
:103A3C0001E00023FB73FB7B18461437BD4680BCAA
:103A4C00704780B483B000AF78600B467B80134620
:103A5C007B707B78002B03D07A887B681A6103E03B
:103A6C007B881A047B681A6100BF0C37BD4680BC8A
:103A7C00704780B485B000AF78600B467B807B6864
:103A8C00DB68FB607A88FB6813401A04FB68D94337
:103A9C007B880B401A437B681A6100BF1437BD4604
:103AAC0080BC704780B584B000AF78607B68002B19
:103ABC0001D101232BE17B6893F83D30DBB2002B65
:103ACC0006D17B68002283F83C207868FFF77AF8EF
:103ADC007B68242283F83D207B681B681A687B680E
:103AEC001B6822F001021A607B681B681A687B68ED
:103AFC001B6842F400421A607B681B681A687B687A
:103B0C001B6822F400421A6001F042F8F8607B68EE
:103B1C005B68814A934207D8FB68804A934294BF02
:103B2C0001230023DBB206E0FB687D4A934294BF7D
:103B3C0001230023DBB2002B01D00123E7E0FB685B
:103B4C00784AA2FB03239B0CBB607B681B685B68F9
:103B5C0023F03F017B681B68BA680A435A607B6894
:103B6C001B681B6A23F03F017B685B686A4A9342BF
:103B7C0002D8BB68013309E0BB684FF4967202FBB4
:103B8C0003F3694AA2FB03239B0901337A68126889
:103B9C000B4313627B681B68DB6923F44F4222F0F2
:103BAC00FF027B685B685C498B4219D8FB68591E25
:103BBC007B685B685B00B1FBF3F3591C40F6FC734C
:103BCC000B40002B0AD0FB68591E7B685B685B00BE
:103BDC00B1FBF3F30133C3F30B0351E004234FE0C8
:103BEC007B689B68002B11D1FB68581E7B68596859
:103BFC000B465B000B44B0FBF3F30133C3F30B0335
:103C0C00002B0CBF01230023DBB212E0FB68581E13
:103C1C007B6859680B469B000B4499000B44B0FB26
:103C2C00F3F30133C3F30B03002B0CBF012300236D
:103C3C00DBB2002B01D0012322E07B689B68002BB8
:103C4C000ED1FB68581E7B6859680B465B000B4411
:103C5C00B0FBF3F30133C3F30B0343F400430FE066
:103C6C00FB68581E7B6859680B469B000B449900F7
:103C7C000B44B0FBF3F30133C3F30B0343F44043A6
:103C8C00796809681343CB617B681B681B6823F058
:103C9C00C0017B68DA697B681B6A1A437B681B6806
:103CAC000A431A607B681B689B6823F4034323F068
:103CBC00FF037A6811697A68D26811437A681268CE
:103CCC000B4393607B681B68DB6823F0FF017B6808
:103CDC005A697B689B691A437B681B680A43DA60E4
:103CEC007B681B681A687B681B6842F001021A60CB
:103CFC007B6800221A647B68202283F83D207B6855
:103D0C0000221A637B68002283F83E2000231846A9
:103D1C001037BD4680BD00BFA08601007F841E0009
:103D2C00FF083D0083DE1B43D34D621080B588B085
:103D3C0002AFF860084611461A4603467B810B46D3
:103D4C003B811346FB80FFF7B5F87861FB6893F86D
:103D5C003D30DBB2202B40F0D9807B6900931923D6
:103D6C0001226D49F86800F071F90346002B01D06F
:103D7C000223CCE0FB6893F83C30012B01D10223E9
:103D8C00C5E0FB68012283F83C20FB681B681B68BC
:103D9C0003F00103012B07D0FB681B681A68FB6852
:103DAC001B6842F001021A60FB681B681A68FB680A
:103DBC001B6822F400621A60FB68212283F83D2004
:103DCC00FB68402283F83E20FB6800221A64FB68E3
:103DDC003A6A5A62FB68BA8C5A85FB685B8D9AB258
:103DEC00FB681A85FB684D4ADA62F8883A8979894A
:103DFC007B690193BB6A00930346F86800F090F866
:103E0C000346002B52D0012381E07A69B96AF86825
:103E1C0000F036FA0346002B0DD0FB681B6C042B0C
:103E2C0007D1FB681B681A68FB681B6842F40072B8
:103E3C001A6001236BE0FB685B6A1A78FB681B68ED
:103E4C001A61FB685B6A5A1CFB685A62FB681B8D23
:103E5C00013B9AB2FB681A85FB685B8D9BB2013BF8
:103E6C009AB2FB685A85FB681B685B6903F0040314
:103E7C00042B1BD1FB681B8D002B17D0FB685B6AD6
:103E8C001A78FB681B681A61FB685B6A5A1CFB6832
:103E9C005A62FB681B8D013B9AB2FB681A85FB6862
:103EAC005B8D9BB2013B9AB2FB685A85FB681B8DFC
:103EBC00002BAAD17A69B96AF86800F029FA03468E
:103ECC00002B0DD0FB681B6C042B07D1FB681B6807
:103EDC001A68FB681B6842F400721A60012316E032
:103EEC00FB681B681A68FB681B6842F400721A6056
:103EFC00FB68202283F83D20FB68002283F83E20DB
:103F0C00FB68002283F83C20002300E002231846C3
:103F1C001837BD4680BD00BF020010000000FFFF37
:103F2C0080B588B002AFF860084611461A460346C1
:103F3C007B810B463B811346FB80FB681B681A6830
:103F4C00FB681B6842F480721A607B6A00933B6AC0
:103F5C0000224FF00111F86800F078F80346002BAE
:103F6C000DD0FB681B681B6803F48073B3F5807F6E
:103F7C0003D1FB684FF400721A6403235FE07B8962
:103F8C00DBB21A46FB681B6802F0FE021A617B6A00
:103F9C003A6A2D49F86800F0D3F80346002B01D09B
:103FAC0001234CE000237B61FB681B685B697B6130
:103FBC00FB681B689B697B617B697A6A396AF86864
:103FCC0000F05EF90346002B0DD0FB681B6C042B34
:103FDC0007D1FB681B681A68FB681B6842F4007207
:103FEC001A6001232BE0FB88012B05D13B89DAB247
:103FFC00FB681B681A6121E03B891B0A9BB2DAB291
:10400C00FB681B681A617A6A396AF86800F038F93B
:10401C000346002B0DD0FB681B6C042B07D1FB68EF
:10402C001B681A68FB681B6842F400721A60012353
:10403C0005E03B89DAB2FB681B681A61002318465D
:10404C001837BD4680BD00BF0200010080B584B0AA
:10405C0000AFF860B9603B601346FB7148E03B6809
:10406C00B3F1FF3F44D0FEF725FF0246BB69D31ADC
:10407C003A689A4202D33B68002B39D1BB681B0CBF
:10408C00DBB2012B0DD1FB681B685B69DA43BB68A3
:10409C0013409BB2002B0CBF01230023DBB21A464A
:1040AC000CE0FB681B689B69DA43BB6813409BB24E
:1040BC00002B0CBF01230023DBB21A46FB799A427A
:1040CC0016D1FB6800221A63FB68202283F83D207E
:1040DC00FB68002283F83E20FB681B6C43F0200237
:1040EC00FB681A64FB68002283F83C20012323E060
:1040FC00BB681B0CDBB2012B0DD1FB681B685B6929
:10410C00DA43BB6813409BB2002B0CBF0123002386
:10411C00DBB21A460CE0FB681B689B69DA43BB6890
:10412C0013409BB2002B0CBF01230023DBB21A46B9
:10413C00FB799A4293D0002318461037BD4680BDB8
:10414C0080B584B000AFF860B9607A603B6071E014
:10415C00FB681B685B6903F48063B3F5806F23D144
:10416C00FB681B681A68FB681B6842F400721A60D3
:10417C00FB681B686FF480625A61FB6800221A634B
:10418C00FB68202283F83D20FB68002283F83E2048
:10419C00FB681B6C43F00402FB681A64FB6800228A
:1041AC0083F83C20012367E07B68B3F1FF3F41D0EB
:1041BC00FEF780FE02463B68D31A7A689A4202D315
:1041CC007B68002B36D1BB681B0CDBB2012B0CD1EE
:1041DC00FB681B685B69DA43BB6813409BB2002B1E
:1041EC0014BF01230023DBB20BE0FB681B689B6947
:1041FC00DA43BB6813409BB2002B14BF012300238E
:10420C00DBB2002B16D0FB6800221A63FB6820225D
:10421C0083F83D20FB68002283F83E20FB681B6C72
:10422C0043F02002FB681A64FB68002283F83C20F0
:10423C00012321E0BB681B0CDBB2012B0CD1FB680A
:10424C001B685B69DA43BB6813409BB2002B14BF3D
:10425C0001230023DBB20BE0FB681B689B69DA438C
:10426C00BB6813409BB2002B14BF01230023DBB2AD
:10427C00002B7FF46DAF002318461037BD4680BD70
:10428C0080B584B000AFF860B9607A6034E0F8684B
:10429C0000F086F80346002B01D0012334E0BB6804
:1042AC00B3F1FF3F28D0FEF705FE02467B68D31A18
:1042BC00BA689A4202D3BB68002B1DD1FB681B68FD
:1042CC005B6903F08003802B16D0FB6800221A6315
:1042DC00FB68202283F83D20FB68002283F83E20F7
:1042EC00FB681B6C43F02002FB681A64FB6800221D
:1042FC0083F83C20012307E0FB681B685B6903F033
:10430C008003802BC3D1002318461037BD4680BDD7
:10431C0080B584B000AFF860B9607A6034E0F868BA
:10432C0000F03EF80346002B01D0012334E0BB68BB
:10433C00B3F1FF3F28D0FEF7BDFD02467B68D31AD0
:10434C00BA689A4202D3BB68002B1DD1FB681B686C
:10435C005B6903F00403042B16D0FB6800221A637C
:10436C00FB68202283F83D20FB68002283F83E2066
:10437C00FB681B6C43F02002FB681A64FB6800228C
:10438C0083F83C20012307E0FB681B685B6903F0A2
:10439C000403042BC3D1002318461037BD4680BD3F
:1043AC0080B483B000AF78607B681B685B6903F4F2
:1043BC008063B3F5806F1BD17B681B686FF48062E0
:1043CC005A617B6800221A637B68202283F83D20A7
:1043DC007B68002283F83E207B681B6C43F0040250
:1043EC007B681A647B68002283F83C20012300E080
:1043FC00002318460C37BD4680BC704780B586B08C
:10440C0000AF78607B68002B01D1012372E27B68DE
:10441C001B6803F00103002B00F08780924B5B6854
:10442C0003F00C03042B0CD08F4B5B6803F00C03D4
:10443C00082B12D18C4B5B6803F48033B3F5803FAF
:10444C000BD1894B1B6803F40033002B6CD07B68B9
:10445C005B68002B68D101234CE27B685B68B3F589
:10446C00803F06D1804B1B687F4A43F48033136036
:10447C002EE07B685B68002B0CD17B4B1B687A4A67
:10448C0023F480331360784B1B68774A23F4802322
:10449C0013601DE07B685B68B3F5A02F0CD1724BE9
:1044AC001B68714A43F4802313606F4B1B686E4A80
:1044BC0043F4803313600BE06B4B1B686A4A23F4A4
:1044CC0080331360684B1B68674A23F480231360A6
:1044DC007B685B68002B13D0FEF7ECFC386108E0BE
:1044EC00FEF7E8FC02463B69D31A642B01D903237F
:1044FC0000E25D4B1B6803F40033002BF0D014E09A
:10450C00FEF7D8FC386108E0FEF7D4FC02463B69A4
:10451C00D31A642B01D90323ECE1534B1B6803F42E
:10452C000033002BF0D100E000BF7B681B6803F068
:10453C000203002B63D04C4B5B6803F00C03002B85
:10454C000BD0494B5B6803F00C03082B1CD1464B7A
:10455C005B6803F48033002B16D1434B1B6803F0CC
:10456C000203002B05D07B681B69012B01D00123B2
:10457C00C0E13D4B1B6823F0F8027B685B69DB00F4
:10458C00394913430B603AE07B681B69002B20D040
:10459C00364B01221A60FEF78DFC386108E0FEF7FD
:1045AC0089FC02463B69D31A022B01D90323A1E1F2
:1045BC002D4B1B6803F00203002BF0D02A4B1B6819
:1045CC0023F0F8027B685B69DB00274913430B601F
:1045DC0015E0264B00221A60FEF76CFC386108E0EF
:1045EC00FEF768FC02463B69D31A022B01D9032360
:1045FC0080E11D4B1B6803F00203002BF0D17B689C
:10460C001B6803F00803002B3AD07B689B69002BD6
:10461C0019D0174B01221A60FEF74CFC386108E0E8
:10462C00FEF748FC02463B69D31A022B01D903233F
:10463C0060E10D4B5B6A03F00203002BF0D001200C
:10464C0000F0CEFA1CE00A4B00221A60FEF732FC96
:10465C0038610FE0FEF72EFC02463B69D31A022BA1
:10466C0008D9032346E100BF00100240000042427B
:10467C0080044242924B5B6A03F00203002BE9D1A7
:10468C007B681B6803F00403002B00F0A68000235A
:10469C00FB758B4BDB6903F08053002B0DD1884BE2
:1046AC00DB69874A43F08053D361854BDB6903F0A8
:1046BC008053BB60BB680123FB75824B1B6803F402
:1046CC008073002B18D17F4B1B687E4A43F4807398
:1046DC001360FEF7EFFB386108E0FEF7EBFB0246D8
:1046EC003B69D31A642B01D9032303E1754B1B6877
:1046FC0003F48073002BF0D07B68DB68012B06D1B0
:10470C006F4B1B6A6E4A43F0010313622DE07B680A
:10471C00DB68002B0CD16A4B1B6A694A23F001033E
:10472C001362674B1B6A664A23F0040313621CE096
:10473C007B68DB68052B0CD1614B1B6A604A43F02C
:10474C00040313625E4B1B6A5D4A43F00103136260
:10475C000BE05B4B1B6A5A4A23F001031362584B64
:10476C001B6A574A23F0040313627B68DB68002B37
:10477C0015D0FEF79FFB38610AE0FEF79BFB024663
:10478C003B69D31A41F28832934201D90323B1E039
:10479C004B4B1B6A03F00203002BEED014E0FEF728
:1047AC0089FB38610AE0FEF785FB02463B69D31AA8
:1047BC0041F28832934201D903239BE0404B1B6AA0
:1047CC0003F00203002BEED1FB7D012B05D13C4BFA
:1047DC00DB693B4A23F08053D3617B68DB69002B98
:1047EC0000F08780364B5B6803F00C03082B61D01C
:1047FC007B68DB69022B46D1334B00221A60FEF733
:10480C0059FB386108E0FEF755FB02463B69D31AA9
:10481C00022B01D903236DE0294B1B6803F00073B5
:10482C00002BF0D17B681B6AB3F5803F08D1244B79
:10483C005B6823F400327B689B68214913434B600F
:10484C001F4B5B6823F474127B68196A7B685B6A84
:10485C000B431B4913434B601B4B01221A60FEF7A1
:10486C0029FB386108E0FEF725FB02463B69D31AA9
:10487C00022B01D903233DE0114B1B6803F000739D
:10488C00002BF0D035E0104B00221A60FEF712FB23
:10489C00386108E0FEF70EFB02463B69D31A022B87
:1048AC0001D9032326E0064B1B6803F00073002B91
:1048BC00F0D11EE07B68DB69012B07D1012319E0E5
:1048CC000010024000700040600042420B4B5B68DD
:1048DC00FB60FB6803F480327B681B6A9A4206D14A
:1048EC00FB6803F470127B685B6A9A4201D0012367
:1048FC0000E0002318461837BD4680BD001002406A
:10490C0080B584B000AF786039607B68002B01D132
:10491C000123D0E06A4B1B6803F007033A689A4204
:10492C0010D9674B1B6823F0070265493B6813439A
:10493C000B60634B1B6803F007033A689A4201D083
:10494C000123B8E07B681B6803F00203002B20D026
:10495C007B681B6803F00403002B05D0594B5B6884
:10496C00584A43F4E06353607B681B6803F0080308
:10497C00002B05D0534B5B68524A43F46053536091
:10498C00504B5B6823F0F0027B689B684D491343E6
:10499C004B607B681B6803F00103002B40D07B68E5
:1049AC005B68012B07D1474B1B6803F40033002BCA
:1049BC0015D101237FE07B685B68022B07D1414B4B
:1049CC001B6803F00073002B09D1012373E03D4BEE
:1049DC001B6803F00203002B01D101236BE0394B60
:1049EC005B6823F003027B685B68364913434B60BA
:1049FC00FEF760FAF8600AE0FEF75CFA0246FB6824
:104A0C00D31A41F28832934201D9032353E02D4B40
:104A1C005B6803F00C027B685B689B009A42EBD1ED
:104A2C00274B1B6803F007033A689A4210D2244BB9
:104A3C001B6823F0070222493B6813430B60204B91
:104A4C001B6803F007033A689A4201D0012332E055
:104A5C007B681B6803F00403002B08D0194B5B68C0
:104A6C0023F4E0627B68DB68164913434B607B6878
:104A7C001B6803F00803002B09D0124B5B6823F46E
:104A8C0060527B681B69DB000E4913434B6000F0DE
:104A9C0021F802460B4B5B681B0903F00F030A4914
:104AAC00CB5C22FA03F3094A1360094B1B681846C6
:104ABC00FEF7BEF9002318461037BD4680BD00BF77
:104ACC00002002400010024058C3000800000020E3
:104ADC000400002080B487B000AF0023FB600023EB
:104AEC00BB6000237B6100237B6000233B611E4B7A
:104AFC005B68FB60FB6803F00C03042B02D0082BF3
:104B0C0003D027E0194B3B6127E0FB689B0C03F0BB
:104B1C000F03174AD35C7B60FB6803F48033002BD4
:104B2C0010D0114B5B685B0C03F00103114AD35C92
:104B3C00BB607B680D4A03FB02F2BB68B2FBF3F36C
:104B4C007B6104E07B680C4A02FB03F37B617B69AD
:104B5C003B6102E0054B3B6100BF3B6918461C37CB
:104B6C00BD4680BC704700BF0010024000127A00A6
:104B7C0070C3000880C3000800093D0080B400AF7A
:104B8C00024B1B681846BD4680BC704700000020D5
:104B9C0080B500AFFFF7F2FF0246054B5B681B0ABE
:104BAC0003F007030349CB5C22FA03F3184680BDDC
:104BBC000010024068C3000880B500AFFFF7DEFFAD
:104BCC000246054B5B68DB0A03F007030349CB5C29
:104BDC0022FA03F3184680BD0010024068C3000897
:104BEC0080B485B000AF78600A4B1B680A4AA2FB00
:104BFC0003235B0A7A6802FB03F3FB6000BFFB68CC
:104C0C005A1EFA60002BF9D100BF00BF1437BD4605
:104C1C0080BC704700000020D34D621080B586B078
:104C2C0000AF786000233B610023FB607B681B684E
:104C3C0003F00103002B7DD00023FB754F4BDB6988
:104C4C0003F08053002B0DD14C4BDB694B4A43F0E6
:104C5C008053D361494BDB6903F08053BB60BB6865
:104C6C000123FB75464B1B6803F48073002B18D192
:104C7C00434B1B68424A43F480731360FEF71AF9E6
:104C8C00386108E0FEF716F902463B69D31A642B2B
:104C9C0001D903236DE03A4B1B6803F48073002B9E
:104CAC00F0D0364B1B6A03F44073FB60FB68002B9F
:104CBC002ED07B685B6803F44073FA689A4227D065
:104CCC002E4B1B6A23F44073FB602E4B01221A609F
:104CDC002C4B00221A60294AFB681362FB6803F014
:104CEC000103002B14D0FEF7E5F838610AE0FEF75B
:104CFC00E1F802463B69D31A41F28832934201D95A
:104D0C00032336E01D4B1B6A03F00203002BEED08D
:104D1C001A4B1B6A23F440727B685B681749134378
:104D2C000B62FB7D012B05D1144BDB69134A23F07D
:104D3C008053D3617B681B6803F00203002B08D0FF
:104D4C000E4B5B6823F440427B689B680B49134312
:104D5C004B607B681B6803F01003002B08D0074BDB
:104D6C005B6823F480027B68DB68044913434B6067
:104D7C00002318461837BD4680BD00BF0010024006
:104D8C00007000404004424280B588B000AF7860AB
:104D9C0000237B610023FB6100233B610023FB604C
:104DAC000023BB617B68102B0AD07B68102B00F2B0
:104DBC008A807B68012B45D07B68022B75D082E002
:104DCC00464B5B68FB60454B1B6803F08073002B04
:104DDC007BD0FB689B0C03F00F03414AD35C3B6117
:104DEC00FB6803F48033002B15D03C4B5B685B0CE9
:104DFC0003F001033B4AD35C7B61FB6803F4803313
:104E0C00002B0DD0384A7B69B2FBF3F23B6902FBF5
:104E1C0003F3FB6104E03B69344A02FB03F3FB61DF
:104E2C002E4B5B6803F48003B3F5800F02D1FB6952
:104E3C00BB614AE0FB695B002D4AA2FB03235B08C4
:104E4C00BB6142E0254B1B6AFB60FB6803F44073BB
:104E5C00B3F5807F08D1FB6803F00203002B03D06D
:104E6C004FF40043BB611FE0FB6803F44073B3F5E0
:104E7C00007F09D1194B5B6A03F00203002B03D0AE
:104E8C0049F64043BB610FE0FB6803F44073B3F594
:104E9C00407F1CD1114B1B6803F40033002B16D040
:104EAC004FF22443BB6112E011E0FFF785FE02468E
:104EBC000A4B5B689B0B03F0030301335B00B2FBF3
:104ECC00F3F3BB6104E000BF02E000BF00E000BFF1
:104EDC00BB6918462037BD4680BD00BF001002409C
:104EEC0084C3000894C3000800127A0000093D0036
:104EFC00ABAAAAAA80B582B000AF78607B68002B01
:104F0C0001D1012341E07B6893F83D30DBB2002BEB
:104F1C0006D17B68002283F83C207868FDF792FE6E
:104F2C007B68022283F83D207B681A687B68043317
:104F3C001946104600F0B2FA7B68012283F846202D
:104F4C007B68012283F83E207B68012283F83F2096
:104F5C007B68012283F840207B68012283F8412082
:104F6C007B68012283F842207B68012283F843206E
:104F7C007B68012283F844207B68012283F845205A
:104F8C007B68012283F83D20002318460837BD4674
:104F9C0080BD80B582B000AF78607B68002B01D1FA
:104FAC00012341E07B6893F83D30DBB2002B06D146
:104FBC007B68002283F83C20786800F039F87B6825
:104FCC00022283F83D207B681A687B6804331946FB
:104FDC00104600F063FA7B68012283F846207B6858
:104FEC00012283F83E207B68012283F83F207B68F6
:104FFC00012283F840207B68012283F841207B68E2
:10500C00012283F842207B68012283F843207B68CD
:10501C00012283F844207B68012283F845207B68B9
:10502C00012283F83D20002318460837BD4680BD79
:10503C0080B483B000AF786000BF0C37BD4680BC35
:10504C007047000080B584B000AF786039603B6871
:10505C00002B09D17B6893F83E30DBB2012B14BFD7
:10506C0001230023DBB222E03B68042B09D17B68CF
:10507C0093F83F30DBB2012B14BF01230023DBB2CA
:10508C0015E03B68082B09D17B6893F84030DBB204
:10509C00012B14BF01230023DBB208E07B6893F8DB
:1050AC004130DBB2012B14BF01230023DBB2002BF8
:1050BC0001D001235EE03B68002B04D17B68022207
:1050CC0083F83E2013E03B68042B04D17B6802225A
:1050DC0083F83F200BE03B68082B04D17B6802224D
:1050EC0083F8402003E07B68022283F841207B6830
:1050FC001B6801223968184600F050FC7B681B685D
:10510C001E4A934207D17B681B685A6C7B681B68EC
:10511C0042F400425A647B681B68184A93420ED0D2
:10512C007B681B68B3F1804F09D07B681B68144AFD
:10513C00934204D07B681B68124A934211D17B685E
:10514C001B689B6803F00703FB60FB68062B10D001
:10515C007B681B681A687B681B6842F001021A6046
:10516C0007E07B681B681A687B681B6842F00102C9
:10517C001A60002318461037BD4680BD002C014034
:10518C00000400400008004080B586B000AFF86015
:10519C00B9607A600023FB75FB6893F83C30012BF7
:1051AC0001D10223AEE0FB68012283F83C207B682E
:1051BC000C2B00F29F8001A252F823F0FD51000845
:1051CC000153000801530008015300083D52000828
:1051DC000153000801530008015300087F520008D6
:1051EC00015300080153000801530008BF52000886
:1051FC00FB681B68B968184600F0B2F9FB681B68BD
:10520C009A69FB681B6842F008029A61FB681B688C
:10521C009A69FB681B6822F004029A61FB681B68A0
:10522C009969BB681A69FB681B680A439A6164E058
:10523C00FB681B68B968184600F0F8F9FB681B6836
:10524C009A69FB681B6842F400629A61FB681B68F0
:10525C009A69FB681B6822F480629A61FB681B6880
:10526C009969BB681B691A02FB681B680A439A613F
:10527C0043E0FB681B68B968184600F041FAFB680C
:10528C001B68DA69FB681B6842F00802DA61FB688C
:10529C001B68DA69FB681B6822F00402DA61FB68A0
:1052AC001B68D969BB681A69FB681B680A43DA6119
:1052BC0023E0FB681B68B968184600F08BFAFB68A2
:1052CC001B68DA69FB681B6842F40062DA61FB68F0
:1052DC001B68DA69FB681B6822F48062DA61FB6880
:1052EC001B68D969BB681B691A02FB681B680A43F7
:1052FC00DA6102E00123FB7500BFFB68002283F832
:10530C003C20FB7D18461837BD4680BD80B584B067
:10531C0000AF786039600023FB737B6893F83C30F6
:10532C00012B01D10223B4E07B68012283F83C20DD
:10533C007B68022283F83D207B681B689B68BB60FE
:10534C00BB6823F07703BB60BB6823F47F43BB606F
:10535C007B681B68BA689A603B681B68B3F5005F92
:10536C003ED0B3F5005F00F28780B3F5805F00F0AC
:10537C008680B3F5805F7FD8702B1AD0702B7BD8CA
:10538C00602B50D0602B77D8502B3CD0502B73D83F
:10539C00402B58D0402B6FD8302B64D0302B6BD88F
:1053AC00202B60D0202B67D8002B5CD0102B5AD030
:1053BC0062E07B6818683B6899683B685A683B6890
:1053CC00DB6800F0CCFA7B681B689B68BB60BB6831
:1053DC0043F07703BB607B681B68BA689A604FE048
:1053EC007B6818683B6899683B685A683B68DB685F
:1053FC0000F0B5FA7B681B689A687B681B6842F4FE
:10540C0080429A603CE07B6818683B6859683B684E
:10541C00DB681A4600F02CFA7B681B685021184692
:10542C0000F083FA2CE07B6818683B6859683B688D
:10543C00DB681A4600F04AFA7B681B686021184644
:10544C0000F073FA1CE07B6818683B6859683B688D
:10545C00DB681A4600F00CFA7B681B684021184682
:10546C0000F063FA0CE07B681A683B681B6819460D
:10547C00104600F05AFA03E00123FB7300E000BF72
:10548C007B68012283F83D207B68002283F83C2056
:10549C00FB7B18461037BD4680BD000080B485B03C
:1054AC0000AF786039607B681B68FB607B68294AB9
:1054BC0093420BD07B68B3F1804F07D07B68264AB0
:1054CC00934203D07B68254A934208D1FB6823F0B2
:1054DC007003FB603B685B68FA681343FB607B6896
:1054EC001C4A93420BD07B68B3F1804F07D07B688A
:1054FC00194A934203D07B68184A934208D1FB683F
:10550C0023F44073FB603B68DB68FA681343FB6071
:10551C00FB6823F080023B685B691343FB607B688C
:10552C00FA681A603B689A687B68DA623B681A68AA
:10553C007B689A627B68074A934203D13B681A697D
:10554C007B681A637B6801225A6100BF1437BD4621
:10555C0080BC7047002C0140000400400008004053
:10556C0080B487B000AF786039607B681B6A7B6160
:10557C007B681B6A23F001027B681A627B685B689C
:10558C003B617B689B69FB60FB6823F07003FB60ED
:10559C00FB6823F00303FB603B681B68FA6813434A
:1055AC00FB607B6923F002037B613B689B687A6933
:1055BC0013437B617B681C4A93420CD17B6923F0BB
:1055CC0008037B613B68DB687A6913437B617B6909
:1055DC0023F004037B617B68134A934211D13B692E
:1055EC0023F480733B613B6923F400733B613B689C
:1055FC005B693A6913433B613B689B693A691343A6
:10560C003B617B683A695A607B68FA689A613B68CF
:10561C005A687B685A637B687A691A6200BF1C37C8
:10562C00BD4680BC704700BF002C014080B487B0E1
:10563C0000AF786039607B681B6A7B617B681B6A92
:10564C0023F010027B681A627B685B683B617B68A5
:10565C009B69FB60FB6823F4E043FB60FB6823F46D
:10566C004073FB603B681B681B02FA681343FB60CA
:10567C007B6923F020037B613B689B681B017A6983
:10568C0013437B617B681D4A93420DD17B6923F0E8
:10569C0080037B613B68DB681B017A6913437B6188
:1056AC007B6923F040037B617B68144A934213D1DE
:1056BC003B6923F480633B613B6923F400633B61EA
:1056CC003B685B699B003A6913433B613B689B6990
:1056DC009B003A6913433B617B683A695A607B686B
:1056EC00FA689A613B685A687B689A637B687A6946
:1056FC001A6200BF1C37BD4680BC7047002C0140AD
:10570C0080B487B000AF786039607B681B6A7B61BE
:10571C007B681B6A23F480727B681A627B685B6807
:10572C003B617B68DB69FB60FB6823F07003FB600B
:10573C00FB6823F00303FB603B681B68FA681343A8
:10574C00FB607B6923F400737B613B689B681B02E5
:10575C007A6913437B617B681D4A93420DD17B6947
:10576C0023F400637B613B68DB681B027A6913439B
:10577C007B617B6923F480637B617B68144A934271
:10578C0013D13B6923F480533B613B6923F40053F1
:10579C003B613B685B691B013A6913433B613B68A6
:1057AC009B691B013A6913433B617B683A695A60F8
:1057BC007B68FA68DA613B685A687B68DA637B68F5
:1057CC007A691A6200BF1C37BD4680BC704700BFA7
:1057DC00002C014080B487B000AF786039607B68E2
:1057EC001B6A3B617B681B6A23F480527B681A62DC
:1057FC007B685B687B617B68DB69FB60FB6823F41F
:10580C00E043FB60FB6823F44073FB603B681B6860
:10581C001B02FA681343FB603B6923F400533B61A2
:10582C003B689B681B033A6913433B617B680F4AD7
:10583C00934209D17B6923F480437B613B685B69AC
:10584C009B017A6913437B617B687A695A607B6838
:10585C00FA68DA613B685A687B681A647B683A6953
:10586C001A6200BF1C37BD4680BC7047002C01403B
:10587C0080B487B000AFF860B9607A60FB681B6ACF
:10588C007B61FB681B6A23F00102FB681A62FB68F0
:10589C009B693B613B6923F0F0033B617B681B0117
:1058AC003A6913433B617B6923F00A037B617A6994
:1058BC00BB6813437B61FB683A699A61FB687A6940
:1058CC001A6200BF1C37BD4680BC704780B487B0DD
:1058DC0000AFF860B9607A60FB681B6A7B61FB689B
:1058EC001B6A23F01002FB681A62FB689B693B6120
:1058FC003B6923F470433B617B681B033A69134398
:10590C003B617B6923F0A0037B61BB681B017A6957
:10591C0013437B61FB683A699A61FB687A691A6286
:10592C0000BF1C37BD4680BC704780B485B000AF4B
:10593C00786039607B689B68FB60FB6823F07003C0
:10594C00FB603A68FB68134343F00703FB607B681A
:10595C00FA689A6000BF1437BD4680BC704780B4AB
:10596C0087B000AFF860B9607A603B60FB689B68F9
:10597C007B617B6923F47F437B613B681A027B6804
:10598C001A43BB6813437A6913437B61FB687A69DA
:10599C009A6000BF1C37BD4680BC704780B487B08E
:1059AC0000AFF860B9607A60BB6803F01F03012296
:1059BC0002FA03F37B61FB681A6A7B69DB431A40CA
:1059CC00FB681A62FB681A6ABB6803F01F037968EC
:1059DC0001FA03F31A43FB681A6200BF1C37BD4679
:1059EC0080BC704780B485B000AF786039607B684C
:1059FC0093F83C30012B01D1022346E07B68012255
:105A0C0083F83C207B68022283F83D207B681B686E
:105A1C005B68FB607B681B689B68BB60FB6823F062
:105A2C007003FB603B681B68FA681343FB607B6880
:105A3C001B68FA685A607B681B68164A93420ED042
:105A4C007B681B68B3F1804F09D07B681B68124AD6
:105A5C00934204D07B681B68104A93420CD1BB68FC
:105A6C0023F08003BB603B685B68BA681343BB6080
:105A7C007B681B68BA689A607B68012283F83D20BA
:105A8C007B68002283F83C20002318461437BD465F
:105A9C0080BC7047002C014000040040000800400E
:105AAC0080B485B000AF786039600023FB607B6800
:105ABC0093F83C30012B01D102233DE07B6801229D
:105ACC0083F83C20FB6823F0FF023B68DB68134340
